{
  "abi": [
    {
      "inputs": [],
      "stateMutability": "nonpayable",
      "type": "constructor"
    },
    {
      "anonymous": false,
      "inputs": [
        {
          "indexed": true,
          "internalType": "address",
          "name": "owner",
          "type": "address"
        },
        {
          "indexed": true,
          "internalType": "address",
          "name": "spender",
          "type": "address"
        },
        {
          "indexed": true,
          "internalType": "uint256",
          "name": "id",
          "type": "uint256"
        }
      ],
      "name": "Approval",
      "type": "event"
    },
    {
      "anonymous": false,
      "inputs": [
        {
          "indexed": true,
          "internalType": "address",
          "name": "owner",
          "type": "address"
        },
        {
          "indexed": true,
          "internalType": "address",
          "name": "operator",
          "type": "address"
        },
        {
          "indexed": false,
          "internalType": "bool",
          "name": "approved",
          "type": "bool"
        }
      ],
      "name": "ApprovalForAll",
      "type": "event"
    },
    {
      "anonymous": false,
      "inputs": [
        {
          "indexed": true,
          "internalType": "address",
          "name": "previousOwner",
          "type": "address"
        },
        {
          "indexed": true,
          "internalType": "address",
          "name": "newOwner",
          "type": "address"
        }
      ],
      "name": "OwnershipTransferred",
      "type": "event"
    },
    {
      "anonymous": false,
      "inputs": [
        {
          "indexed": true,
          "internalType": "address",
          "name": "from",
          "type": "address"
        },
        {
          "indexed": true,
          "internalType": "address",
          "name": "to",
          "type": "address"
        },
        {
          "indexed": true,
          "internalType": "uint256",
          "name": "id",
          "type": "uint256"
        }
      ],
      "name": "Transfer",
      "type": "event"
    },
    {
      "inputs": [
        {
          "internalType": "address",
          "name": "spender",
          "type": "address"
        },
        {
          "internalType": "uint256",
          "name": "id",
          "type": "uint256"
        }
      ],
      "name": "approve",
      "outputs": [],
      "stateMutability": "nonpayable",
      "type": "function"
    },
    {
      "inputs": [
        {
          "internalType": "address",
          "name": "owner",
          "type": "address"
        }
      ],
      "name": "balanceOf",
      "outputs": [
        {
          "internalType": "uint256",
          "name": "",
          "type": "uint256"
        }
      ],
      "stateMutability": "view",
      "type": "function"
    },
    {
      "inputs": [],
      "name": "baseURI",
      "outputs": [
        {
          "internalType": "string",
          "name": "",
          "type": "string"
        }
      ],
      "stateMutability": "view",
      "type": "function"
    },
    {
      "inputs": [
        {
          "internalType": "bytes32[]",
          "name": "proof",
          "type": "bytes32[]"
        }
      ],
      "name": "claim",
      "outputs": [],
      "stateMutability": "nonpayable",
      "type": "function"
    },
    {
      "inputs": [
        {
          "internalType": "address",
          "name": "to",
          "type": "address"
        }
      ],
      "name": "claimTo",
      "outputs": [],
      "stateMutability": "nonpayable",
      "type": "function"
    },
    {
      "inputs": [
        {
          "internalType": "uint256",
          "name": "",
          "type": "uint256"
        }
      ],
      "name": "getApproved",
      "outputs": [
        {
          "internalType": "address",
          "name": "",
          "type": "address"
        }
      ],
      "stateMutability": "view",
      "type": "function"
    },
    {
      "inputs": [
        {
          "internalType": "address",
          "name": "",
          "type": "address"
        },
        {
          "internalType": "address",
          "name": "",
          "type": "address"
        }
      ],
      "name": "isApprovedForAll",
      "outputs": [
        {
          "internalType": "bool",
          "name": "",
          "type": "bool"
        }
      ],
      "stateMutability": "view",
      "type": "function"
    },
    {
      "inputs": [
        {
          "internalType": "address",
          "name": "addr",
          "type": "address"
        },
        {
          "internalType": "bytes32[]",
          "name": "proof",
          "type": "bytes32[]"
        }
      ],
      "name": "isWhitelisted",
      "outputs": [
        {
          "internalType": "bool",
          "name": "",
          "type": "bool"
        }
      ],
      "stateMutability": "view",
      "type": "function"
    },
    {
      "inputs": [],
      "name": "name",
      "outputs": [
        {
          "internalType": "string",
          "name": "",
          "type": "string"
        }
      ],
      "stateMutability": "view",
      "type": "function"
    },
    {
      "inputs": [],
      "name": "owner",
      "outputs": [
        {
          "internalType": "address",
          "name": "",
          "type": "address"
        }
      ],
      "stateMutability": "view",
      "type": "function"
    },
    {
      "inputs": [
        {
          "internalType": "uint256",
          "name": "id",
          "type": "uint256"
        }
      ],
      "name": "ownerOf",
      "outputs": [
        {
          "internalType": "address",
          "name": "owner",
          "type": "address"
        }
      ],
      "stateMutability": "view",
      "type": "function"
    },
    {
      "inputs": [],
      "name": "renounceOwnership",
      "outputs": [],
      "stateMutability": "nonpayable",
      "type": "function"
    },
    {
      "inputs": [
        {
          "internalType": "address",
          "name": "from",
          "type": "address"
        },
        {
          "internalType": "address",
          "name": "to",
          "type": "address"
        },
        {
          "internalType": "uint256",
          "name": "id",
          "type": "uint256"
        }
      ],
      "name": "safeTransferFrom",
      "outputs": [],
      "stateMutability": "nonpayable",
      "type": "function"
    },
    {
      "inputs": [
        {
          "internalType": "address",
          "name": "from",
          "type": "address"
        },
        {
          "internalType": "address",
          "name": "to",
          "type": "address"
        },
        {
          "internalType": "uint256",
          "name": "id",
          "type": "uint256"
        },
        {
          "internalType": "bytes",
          "name": "data",
          "type": "bytes"
        }
      ],
      "name": "safeTransferFrom",
      "outputs": [],
      "stateMutability": "nonpayable",
      "type": "function"
    },
    {
      "inputs": [
        {
          "internalType": "address",
          "name": "operator",
          "type": "address"
        },
        {
          "internalType": "bool",
          "name": "approved",
          "type": "bool"
        }
      ],
      "name": "setApprovalForAll",
      "outputs": [],
      "stateMutability": "nonpayable",
      "type": "function"
    },
    {
      "inputs": [
        {
          "internalType": "bytes32",
          "name": "_whitelistMerkleRoot",
          "type": "bytes32"
        }
      ],
      "name": "setWhitelistMerkleRoot",
      "outputs": [],
      "stateMutability": "nonpayable",
      "type": "function"
    },
    {
      "inputs": [
        {
          "internalType": "bytes4",
          "name": "interfaceId",
          "type": "bytes4"
        }
      ],
      "name": "supportsInterface",
      "outputs": [
        {
          "internalType": "bool",
          "name": "",
          "type": "bool"
        }
      ],
      "stateMutability": "view",
      "type": "function"
    },
    {
      "inputs": [],
      "name": "symbol",
      "outputs": [
        {
          "internalType": "string",
          "name": "",
          "type": "string"
        }
      ],
      "stateMutability": "view",
      "type": "function"
    },
    {
      "inputs": [
        {
          "internalType": "uint256",
          "name": "tokenId",
          "type": "uint256"
        }
      ],
      "name": "tokenURI",
      "outputs": [
        {
          "internalType": "string",
          "name": "",
          "type": "string"
        }
      ],
      "stateMutability": "view",
      "type": "function"
    },
    {
      "inputs": [],
      "name": "totalSupply",
      "outputs": [
        {
          "internalType": "uint256",
          "name": "",
          "type": "uint256"
        }
      ],
      "stateMutability": "view",
      "type": "function"
    },
    {
      "inputs": [
        {
          "internalType": "address",
          "name": "from",
          "type": "address"
        },
        {
          "internalType": "address",
          "name": "to",
          "type": "address"
        },
        {
          "internalType": "uint256",
          "name": "id",
          "type": "uint256"
        }
      ],
      "name": "transferFrom",
      "outputs": [],
      "stateMutability": "nonpayable",
      "type": "function"
    },
    {
      "inputs": [
        {
          "internalType": "address",
          "name": "newOwner",
          "type": "address"
        }
      ],
      "name": "transferOwnership",
      "outputs": [],
      "stateMutability": "nonpayable",
      "type": "function"
    },
    {
      "inputs": [],
      "name": "whitelistMerkleRoot",
      "outputs": [
        {
          "internalType": "bytes32",
          "name": "",
          "type": "bytes32"
        }
      ],
      "stateMutability": "view",
      "type": "function"
    }
  ],
  "bytecode": {
    "object": "0x600060075561010060405260426080818152906200172060a039600890620000289082620001c8565b503480156200003657600080fd5b506040518060400160405280601981526020017f41746c616e74697320576f726c6420416c706861205061737300000000000000815250604051806040016040528060048152602001630415741560e41b81525081600090816200009b9190620001c8565b506001620000aa8282620001c8565b505050620000c7620000c1620000cd60201b60201c565b620000d1565b62000294565b3390565b600680546001600160a01b038381166001600160a01b0319831681179093556040519116919082907f8be0079c531659141344cd1fd0a4f28419497f9722a3daafe3b4186f6b6457e090600090a35050565b634e487b7160e01b600052604160045260246000fd5b600181811c908216806200014e57607f821691505b6020821081036200016f57634e487b7160e01b600052602260045260246000fd5b50919050565b601f821115620001c357600081815260208120601f850160051c810160208610156200019e5750805b601f850160051c820191505b81811015620001bf57828155600101620001aa565b5050505b505050565b81516001600160401b03811115620001e457620001e462000123565b620001fc81620001f5845462000139565b8462000175565b602080601f8311600181146200023457600084156200021b5750858301515b600019600386901b1c1916600185901b178555620001bf565b600085815260208120601f198616915b82811015620002655788860151825594840194600190910190840162000244565b5085821015620002845787850151600019600388901b60f8161c191681555b5050505050600190811b01905550565b61147c80620002a46000396000f3fe608060405234801561001057600080fd5b506004361061014d5760003560e01c8063715018a6116100c3578063b391c5081161007c578063b391c508146102b3578063b88d4fde146102c6578063bd32fb66146102d9578063c87b56dd146102ec578063e985e9c5146102ff578063f2fde38b1461032d57600080fd5b8063715018a6146102635780638da5cb5b1461026b57806395d89b411461027c578063a22cb46514610284578063a262f5f814610297578063aa98e0c6146102aa57600080fd5b806323b872dd1161011557806323b872dd146101fc57806342842e0e1461020f5780635a23dd99146102225780636352211e146102355780636c0360eb1461024857806370a082311461025057600080fd5b806301ffc9a71461015257806306fdde031461017a578063081812fc1461018f578063095ea7b3146101d057806318160ddd146101e5575b600080fd5b610165610160366004610f67565b610340565b60405190151581526020015b60405180910390f35b610182610392565b6040516101719190610f84565b6101b861019d366004610fd9565b6004602052600090815260409020546001600160a01b031681565b6040516001600160a01b039091168152602001610171565b6101e36101de366004611009565b610420565b005b6101ee60075481565b604051908152602001610171565b6101e361020a366004611033565b610507565b6101e361021d366004611033565b6106ce565b6101656102303660046110bb565b6107a3565b6101b8610243366004610fd9565b610821565b610182610878565b6101ee61025e36600461110e565b610885565b6101e36108e8565b6006546001600160a01b03166101b8565b6101826108fc565b6101e3610292366004611129565b610909565b6101e36102a536600461110e565b610975565b6101ee60095481565b6101e36102c1366004611165565b6109b3565b6101e36102d43660046111a7565b610ac0565b6101e36102e7366004610fd9565b610b85565b6101826102fa366004610fd9565b610b92565b61016561030d366004611242565b600560209081526000928352604080842090915290825290205460ff1681565b6101e361033b36600461110e565b610bbc565b60006301ffc9a760e01b6001600160e01b03198316148061037157506380ac58cd60e01b6001600160e01b03198316145b8061038c5750635b5e139f60e01b6001600160e01b03198316145b92915050565b6000805461039f90611275565b80601f01602080910402602001604051908101604052809291908181526020018280546103cb90611275565b80156104185780601f106103ed57610100808354040283529160200191610418565b820191906000526020600020905b8154815290600101906020018083116103fb57829003601f168201915b505050505081565b6000818152600260205260409020546001600160a01b03163381148061046957506001600160a01b038116600090815260056020908152604080832033845290915290205460ff165b6104ab5760405162461bcd60e51b815260206004820152600e60248201526d1393d517d055551213d49256915160921b60448201526064015b60405180910390fd5b60008281526004602052604080822080546001600160a01b0319166001600160a01b0387811691821790925591518593918516917f8c5be1e5ebec7d5bd14f71427d1e84f3dd0314c0f7b2291e5b200ac8c7c3b92591a4505050565b6000818152600260205260409020546001600160a01b0384811691161461055d5760405162461bcd60e51b815260206004820152600a60248201526957524f4e475f46524f4d60b01b60448201526064016104a2565b6001600160a01b0382166105a75760405162461bcd60e51b81526020600482015260116024820152701253959053125117d49150d25412515395607a1b60448201526064016104a2565b336001600160a01b03841614806105e157506001600160a01b038316600090815260056020908152604080832033845290915290205460ff165b8061060257506000818152600460205260409020546001600160a01b031633145b61063f5760405162461bcd60e51b815260206004820152600e60248201526d1393d517d055551213d49256915160921b60448201526064016104a2565b6001600160a01b0380841660008181526003602090815260408083208054600019019055938616808352848320805460010190558583526002825284832080546001600160a01b03199081168317909155600490925284832080549092169091559251849392917fddf252ad1be2c89b69c2b068fc378daa952ba7f163c4a11628f55a4df523b3ef91a4505050565b6106d9838383610507565b6001600160a01b0382163b15806107825750604051630a85bd0160e11b8082523360048301526001600160a01b03858116602484015260448301849052608060648401526000608484015290919084169063150b7a029060a4016020604051808303816000875af1158015610752573d6000803e3d6000fd5b505050506040513d601f19601f8201168201806040525081019061077691906112af565b6001600160e01b031916145b61079e5760405162461bcd60e51b81526004016104a2906112cc565b505050565b604080516001600160a01b03851660208201526000918291016040516020818303038152906040528051906020012090506000610817858580806020026020016040519081016040528093929190818152602001838360200280828437600092019190915250506009549150859050610c35565b9695505050505050565b6000818152600260205260409020546001600160a01b0316806108735760405162461bcd60e51b815260206004820152600a6024820152691393d517d3525395115160b21b60448201526064016104a2565b919050565b6008805461039f90611275565b60006001600160a01b0382166108cc5760405162461bcd60e51b815260206004820152600c60248201526b5a45524f5f4144445245535360a01b60448201526064016104a2565b506001600160a01b031660009081526003602052604090205490565b6108f0610c4b565b6108fa6000610ca5565b565b6001805461039f90611275565b3360008181526005602090815260408083206001600160a01b03871680855290835292819020805460ff191686151590811790915590519081529192917f17307eab39ab6107e8899845ad3d59bd9653f200f220920489ca2b5937696c31910160405180910390a35050565b61097d610c4b565b6000600754600161098e919061130c565b905061099a8282610cf7565b600780549060006109aa83611324565b91905055505050565b81816109c03383836107a3565b610a1b5760405162461bcd60e51b815260206004820152602660248201527f4157416c706861506173733a2043616e2774207665726966792077686974656c604482015265697374696e6760d01b60648201526084016104a2565b6000610a2633610885565b1115610a875760405162461bcd60e51b815260206004820152602a60248201527f4157416c706861506173733a20416c706861207061737320697320616c726561604482015269191e4818db185a5b595960b21b60648201526084016104a2565b60006007546001610a98919061130c565b9050610aa43382610cf7565b60078054906000610ab483611324565b91905055505050505050565b610acb858585610507565b6001600160a01b0384163b1580610b625750604051630a85bd0160e11b808252906001600160a01b0386169063150b7a0290610b139033908a9089908990899060040161133d565b6020604051808303816000875af1158015610b32573d6000803e3d6000fd5b505050506040513d601f19601f82011682018060405250810190610b5691906112af565b6001600160e01b031916145b610b7e5760405162461bcd60e51b81526004016104a2906112cc565b5050505050565b610b8d610c4b565b600955565b60606008604051602001610ba69190611391565b6040516020818303038152906040529050919050565b610bc4610c4b565b6001600160a01b038116610c295760405162461bcd60e51b815260206004820152602660248201527f4f776e61626c653a206e6577206f776e657220697320746865207a65726f206160448201526564647265737360d01b60648201526084016104a2565b610c3281610ca5565b50565b600082610c428584610dc7565b14949350505050565b6006546001600160a01b031633146108fa5760405162461bcd60e51b815260206004820181905260248201527f4f776e61626c653a2063616c6c6572206973206e6f7420746865206f776e657260448201526064016104a2565b600680546001600160a01b038381166001600160a01b0319831681179093556040519116919082907f8be0079c531659141344cd1fd0a4f28419497f9722a3daafe3b4186f6b6457e090600090a35050565b610d018282610e14565b6001600160a01b0382163b1580610da75750604051630a85bd0160e11b80825233600483015260006024830181905260448301849052608060648401526084830152906001600160a01b0384169063150b7a029060a4016020604051808303816000875af1158015610d77573d6000803e3d6000fd5b505050506040513d601f19601f82011682018060405250810190610d9b91906112af565b6001600160e01b031916145b610dc35760405162461bcd60e51b81526004016104a2906112cc565b5050565b600081815b8451811015610e0c57610df882868381518110610deb57610deb611430565b6020026020010151610f1f565b915080610e0481611324565b915050610dcc565b509392505050565b6001600160a01b038216610e5e5760405162461bcd60e51b81526020600482015260116024820152701253959053125117d49150d25412515395607a1b60448201526064016104a2565b6000818152600260205260409020546001600160a01b031615610eb45760405162461bcd60e51b815260206004820152600e60248201526d1053149150511657d3525395115160921b60448201526064016104a2565b6001600160a01b038216600081815260036020908152604080832080546001019055848352600290915280822080546001600160a01b0319168417905551839291907fddf252ad1be2c89b69c2b068fc378daa952ba7f163c4a11628f55a4df523b3ef908290a45050565b6000818310610f3b576000828152602084905260409020610f4a565b60008381526020839052604090205b9392505050565b6001600160e01b031981168114610c3257600080fd5b600060208284031215610f7957600080fd5b8135610f4a81610f51565b600060208083528351808285015260005b81811015610fb157858101830151858201604001528201610f95565b81811115610fc3576000604083870101525b50601f01601f1916929092016040019392505050565b600060208284031215610feb57600080fd5b5035919050565b80356001600160a01b038116811461087357600080fd5b6000806040838503121561101c57600080fd5b61102583610ff2565b946020939093013593505050565b60008060006060848603121561104857600080fd5b61105184610ff2565b925061105f60208501610ff2565b9150604084013590509250925092565b60008083601f84011261108157600080fd5b50813567ffffffffffffffff81111561109957600080fd5b6020830191508360208260051b85010111156110b457600080fd5b9250929050565b6000806000604084860312156110d057600080fd5b6110d984610ff2565b9250602084013567ffffffffffffffff8111156110f557600080fd5b6111018682870161106f565b9497909650939450505050565b60006020828403121561112057600080fd5b610f4a82610ff2565b6000806040838503121561113c57600080fd5b61114583610ff2565b91506020830135801515811461115a57600080fd5b809150509250929050565b6000806020838503121561117857600080fd5b823567ffffffffffffffff81111561118f57600080fd5b61119b8582860161106f565b90969095509350505050565b6000806000806000608086880312156111bf57600080fd5b6111c886610ff2565b94506111d660208701610ff2565b935060408601359250606086013567ffffffffffffffff808211156111fa57600080fd5b818801915088601f83011261120e57600080fd5b81358181111561121d57600080fd5b89602082850101111561122f57600080fd5b9699959850939650602001949392505050565b6000806040838503121561125557600080fd5b61125e83610ff2565b915061126c60208401610ff2565b90509250929050565b600181811c9082168061128957607f821691505b6020821081036112a957634e487b7160e01b600052602260045260246000fd5b50919050565b6000602082840312156112c157600080fd5b8151610f4a81610f51565b60208082526010908201526f155394d0519157d49150d2541251539560821b604082015260600190565b634e487b7160e01b600052601160045260246000fd5b6000821982111561131f5761131f6112f6565b500190565b600060018201611336576113366112f6565b5060010190565b6001600160a01b038681168252851660208201526040810184905260806060820181905281018290526000828460a0840137600060a0848401015260a0601f19601f85011683010190509695505050505050565b600080835481600182811c9150808316806113ad57607f831692505b602080841082036113cc57634e487b7160e01b86526022600452602486fd5b8180156113e057600181146113f557611422565b60ff1986168952841515850289019650611422565b60008a81526020902060005b8681101561141a5781548b820152908501908301611401565b505084890196505b509498975050505050505050565b634e487b7160e01b600052603260045260246000fdfea2646970667358221220118926a54fc9faae004519f1e5930fc692bca71cd3f0861ae88152b937c3311764736f6c634300080f0033697066733a2f2f6261666b72656966776b6574636870746f77696d67697277357a786263756e703533617a696877667a336b68356b77337163626f66617a6a356561",
    "linkReferences": {}
  },
  "methodIdentifiers": {
    "approve(address,uint256)": "095ea7b3",
    "balanceOf(address)": "70a08231",
    "baseURI()": "6c0360eb",
    "claim(bytes32[])": "b391c508",
    "claimTo(address)": "a262f5f8",
    "getApproved(uint256)": "081812fc",
    "isApprovedForAll(address,address)": "e985e9c5",
    "isWhitelisted(address,bytes32[])": "5a23dd99",
    "name()": "06fdde03",
    "owner()": "8da5cb5b",
    "ownerOf(uint256)": "6352211e",
    "renounceOwnership()": "715018a6",
    "safeTransferFrom(address,address,uint256)": "42842e0e",
    "safeTransferFrom(address,address,uint256,bytes)": "b88d4fde",
    "setApprovalForAll(address,bool)": "a22cb465",
    "setWhitelistMerkleRoot(bytes32)": "bd32fb66",
    "supportsInterface(bytes4)": "01ffc9a7",
    "symbol()": "95d89b41",
    "tokenURI(uint256)": "c87b56dd",
    "totalSupply()": "18160ddd",
    "transferFrom(address,address,uint256)": "23b872dd",
    "transferOwnership(address)": "f2fde38b",
    "whitelistMerkleRoot()": "aa98e0c6"
  },
  "id": 14
}