{
  "abi": [
    {
      "inputs": [
        {
          "internalType": "string",
          "name": "_name",
          "type": "string"
        },
        {
          "internalType": "string",
          "name": "_symbol",
          "type": "string"
        },
        {
          "internalType": "string",
          "name": "_baseURI",
          "type": "string"
        }
      ],
      "stateMutability": "nonpayable",
      "type": "constructor"
    },
    {
      "inputs": [],
      "name": "MaxAmountPerTrxReached",
      "type": "error"
    },
    {
      "inputs": [],
      "name": "MaxSupplyReached",
      "type": "error"
    },
    {
      "inputs": [],
      "name": "NoEthBalance",
      "type": "error"
    },
    {
      "inputs": [],
      "name": "WrongEtherAmount",
      "type": "error"
    },
    {
      "anonymous": false,
      "inputs": [
        {
          "indexed": true,
          "internalType": "address",
          "name": "owner",
          "type": "address"
        },
        {
          "indexed": true,
          "internalType": "address",
          "name": "spender",
          "type": "address"
        },
        {
          "indexed": true,
          "internalType": "uint256",
          "name": "id",
          "type": "uint256"
        }
      ],
      "name": "Approval",
      "type": "event"
    },
    {
      "anonymous": false,
      "inputs": [
        {
          "indexed": true,
          "internalType": "address",
          "name": "owner",
          "type": "address"
        },
        {
          "indexed": true,
          "internalType": "address",
          "name": "operator",
          "type": "address"
        },
        {
          "indexed": false,
          "internalType": "bool",
          "name": "approved",
          "type": "bool"
        }
      ],
      "name": "ApprovalForAll",
      "type": "event"
    },
    {
      "anonymous": false,
      "inputs": [
        {
          "indexed": true,
          "internalType": "address",
          "name": "previousOwner",
          "type": "address"
        },
        {
          "indexed": true,
          "internalType": "address",
          "name": "newOwner",
          "type": "address"
        }
      ],
      "name": "OwnershipTransferred",
      "type": "event"
    },
    {
      "anonymous": false,
      "inputs": [
        {
          "indexed": true,
          "internalType": "address",
          "name": "from",
          "type": "address"
        },
        {
          "indexed": true,
          "internalType": "address",
          "name": "to",
          "type": "address"
        },
        {
          "indexed": true,
          "internalType": "uint256",
          "name": "id",
          "type": "uint256"
        }
      ],
      "name": "Transfer",
      "type": "event"
    },
    {
      "inputs": [
        {
          "internalType": "address",
          "name": "spender",
          "type": "address"
        },
        {
          "internalType": "uint256",
          "name": "id",
          "type": "uint256"
        }
      ],
      "name": "approve",
      "outputs": [],
      "stateMutability": "nonpayable",
      "type": "function"
    },
    {
      "inputs": [
        {
          "internalType": "address",
          "name": "owner",
          "type": "address"
        }
      ],
      "name": "balanceOf",
      "outputs": [
        {
          "internalType": "uint256",
          "name": "",
          "type": "uint256"
        }
      ],
      "stateMutability": "view",
      "type": "function"
    },
    {
      "inputs": [],
      "name": "baseURI",
      "outputs": [
        {
          "internalType": "string",
          "name": "",
          "type": "string"
        }
      ],
      "stateMutability": "view",
      "type": "function"
    },
    {
      "inputs": [
        {
          "internalType": "uint256",
          "name": "",
          "type": "uint256"
        }
      ],
      "name": "getApproved",
      "outputs": [
        {
          "internalType": "address",
          "name": "",
          "type": "address"
        }
      ],
      "stateMutability": "view",
      "type": "function"
    },
    {
      "inputs": [
        {
          "internalType": "address",
          "name": "",
          "type": "address"
        },
        {
          "internalType": "address",
          "name": "",
          "type": "address"
        }
      ],
      "name": "isApprovedForAll",
      "outputs": [
        {
          "internalType": "bool",
          "name": "",
          "type": "bool"
        }
      ],
      "stateMutability": "view",
      "type": "function"
    },
    {
      "inputs": [],
      "name": "maxAmountPerTrx",
      "outputs": [
        {
          "internalType": "uint256",
          "name": "",
          "type": "uint256"
        }
      ],
      "stateMutability": "view",
      "type": "function"
    },
    {
      "inputs": [],
      "name": "maxSupply",
      "outputs": [
        {
          "internalType": "uint256",
          "name": "",
          "type": "uint256"
        }
      ],
      "stateMutability": "view",
      "type": "function"
    },
    {
      "inputs": [
        {
          "internalType": "uint256",
          "name": "amount",
          "type": "uint256"
        }
      ],
      "name": "mintNft",
      "outputs": [],
      "stateMutability": "payable",
      "type": "function"
    },
    {
      "inputs": [],
      "name": "name",
      "outputs": [
        {
          "internalType": "string",
          "name": "",
          "type": "string"
        }
      ],
      "stateMutability": "view",
      "type": "function"
    },
    {
      "inputs": [],
      "name": "owner",
      "outputs": [
        {
          "internalType": "address",
          "name": "",
          "type": "address"
        }
      ],
      "stateMutability": "view",
      "type": "function"
    },
    {
      "inputs": [
        {
          "internalType": "uint256",
          "name": "id",
          "type": "uint256"
        }
      ],
      "name": "ownerOf",
      "outputs": [
        {
          "internalType": "address",
          "name": "owner",
          "type": "address"
        }
      ],
      "stateMutability": "view",
      "type": "function"
    },
    {
      "inputs": [],
      "name": "price",
      "outputs": [
        {
          "internalType": "uint256",
          "name": "",
          "type": "uint256"
        }
      ],
      "stateMutability": "view",
      "type": "function"
    },
    {
      "inputs": [],
      "name": "renounceOwnership",
      "outputs": [],
      "stateMutability": "nonpayable",
      "type": "function"
    },
    {
      "inputs": [
        {
          "internalType": "address",
          "name": "from",
          "type": "address"
        },
        {
          "internalType": "address",
          "name": "to",
          "type": "address"
        },
        {
          "internalType": "uint256",
          "name": "id",
          "type": "uint256"
        }
      ],
      "name": "safeTransferFrom",
      "outputs": [],
      "stateMutability": "nonpayable",
      "type": "function"
    },
    {
      "inputs": [
        {
          "internalType": "address",
          "name": "from",
          "type": "address"
        },
        {
          "internalType": "address",
          "name": "to",
          "type": "address"
        },
        {
          "internalType": "uint256",
          "name": "id",
          "type": "uint256"
        },
        {
          "internalType": "bytes",
          "name": "data",
          "type": "bytes"
        }
      ],
      "name": "safeTransferFrom",
      "outputs": [],
      "stateMutability": "nonpayable",
      "type": "function"
    },
    {
      "inputs": [
        {
          "internalType": "address",
          "name": "operator",
          "type": "address"
        },
        {
          "internalType": "bool",
          "name": "approved",
          "type": "bool"
        }
      ],
      "name": "setApprovalForAll",
      "outputs": [],
      "stateMutability": "nonpayable",
      "type": "function"
    },
    {
      "inputs": [
        {
          "internalType": "bytes4",
          "name": "interfaceId",
          "type": "bytes4"
        }
      ],
      "name": "supportsInterface",
      "outputs": [
        {
          "internalType": "bool",
          "name": "",
          "type": "bool"
        }
      ],
      "stateMutability": "view",
      "type": "function"
    },
    {
      "inputs": [],
      "name": "symbol",
      "outputs": [
        {
          "internalType": "string",
          "name": "",
          "type": "string"
        }
      ],
      "stateMutability": "view",
      "type": "function"
    },
    {
      "inputs": [
        {
          "internalType": "uint256",
          "name": "tokenId",
          "type": "uint256"
        }
      ],
      "name": "tokenURI",
      "outputs": [
        {
          "internalType": "string",
          "name": "",
          "type": "string"
        }
      ],
      "stateMutability": "view",
      "type": "function"
    },
    {
      "inputs": [],
      "name": "totalSupply",
      "outputs": [
        {
          "internalType": "uint256",
          "name": "",
          "type": "uint256"
        }
      ],
      "stateMutability": "view",
      "type": "function"
    },
    {
      "inputs": [
        {
          "internalType": "address",
          "name": "from",
          "type": "address"
        },
        {
          "internalType": "address",
          "name": "to",
          "type": "address"
        },
        {
          "internalType": "uint256",
          "name": "id",
          "type": "uint256"
        }
      ],
      "name": "transferFrom",
      "outputs": [],
      "stateMutability": "nonpayable",
      "type": "function"
    },
    {
      "inputs": [
        {
          "internalType": "address",
          "name": "newOwner",
          "type": "address"
        }
      ],
      "name": "transferOwnership",
      "outputs": [],
      "stateMutability": "nonpayable",
      "type": "function"
    },
    {
      "inputs": [],
      "name": "vaultAddress",
      "outputs": [
        {
          "internalType": "address",
          "name": "",
          "type": "address"
        }
      ],
      "stateMutability": "view",
      "type": "function"
    },
    {
      "inputs": [],
      "name": "withdraw",
      "outputs": [],
      "stateMutability": "nonpayable",
      "type": "function"
    }
  ],
  "bytecode": {
    "object": "0x60e06040526000600755612710608052670214e8348c4f000060a052600560c052600980546001600160a01b0319167306f75da47a438f65b2c4cc7e0ee729d5c67ca1741790553480156200005357600080fd5b50604051620017a3380380620017a38339810160408190526200007691620001ed565b828260006200008683826200030d565b5060016200009582826200030d565b505050620000b2620000ac620000ca60201b60201c565b620000ce565b6008620000c082826200030d565b50505050620003d9565b3390565b600680546001600160a01b038381166001600160a01b0319831681179093556040519116919082907f8be0079c531659141344cd1fd0a4f28419497f9722a3daafe3b4186f6b6457e090600090a35050565b634e487b7160e01b600052604160045260246000fd5b600082601f8301126200014857600080fd5b81516001600160401b038082111562000165576200016562000120565b604051601f8301601f19908116603f0116810190828211818310171562000190576200019062000120565b81604052838152602092508683858801011115620001ad57600080fd5b600091505b83821015620001d15785820183015181830184015290820190620001b2565b83821115620001e35760008385830101525b9695505050505050565b6000806000606084860312156200020357600080fd5b83516001600160401b03808211156200021b57600080fd5b620002298783880162000136565b945060208601519150808211156200024057600080fd5b6200024e8783880162000136565b935060408601519150808211156200026557600080fd5b50620002748682870162000136565b9150509250925092565b600181811c908216806200029357607f821691505b602082108103620002b457634e487b7160e01b600052602260045260246000fd5b50919050565b601f8211156200030857600081815260208120601f850160051c81016020861015620002e35750805b601f850160051c820191505b818110156200030457828155600101620002ef565b5050505b505050565b81516001600160401b0381111562000329576200032962000120565b62000341816200033a84546200027e565b84620002ba565b602080601f831160018114620003795760008415620003605750858301515b600019600386901b1c1916600185901b17855562000304565b600085815260208120601f198616915b82811015620003aa5788860151825594840194600190910190840162000389565b5085821015620003c95787850151600019600388901b60f8161c191681555b5050505050600190811b01905550565b60805160a05160c0516113856200041e6000396000818161022901526106800152600081816103a6015261071301526000818161043a01526106c101526113856000f3fe60806040526004361061014b5760003560e01c80636c0360eb116100b6578063a22cb4651161006f578063a22cb465146103c8578063b88d4fde146103e8578063c87b56dd14610408578063d5abeb0114610428578063e985e9c51461045c578063f2fde38b1461049757600080fd5b80636c0360eb1461031757806370a082311461032c578063715018a61461034c5780638da5cb5b1461036157806395d89b411461037f578063a035b1fe1461039457600080fd5b806318160ddd1161010857806318160ddd1461026c57806323b872dd146102825780633ccfd60b146102a257806342842e0e146102b7578063430bf08a146102d75780636352211e146102f757600080fd5b806301ffc9a71461015057806306fdde0314610185578063081812fc146101a7578063095ea7b3146101f55780630b7ec171146102175780630d730acc14610259575b600080fd5b34801561015c57600080fd5b5061017061016b366004610f84565b6104b7565b60405190151581526020015b60405180910390f35b34801561019157600080fd5b5061019a610509565b60405161017c9190610fa8565b3480156101b357600080fd5b506101dd6101c2366004610ffd565b6004602052600090815260409020546001600160a01b031681565b6040516001600160a01b03909116815260200161017c565b34801561020157600080fd5b5061021561021036600461102d565b610597565b005b34801561022357600080fd5b5061024b7f000000000000000000000000000000000000000000000000000000000000000081565b60405190815260200161017c565b610215610267366004610ffd565b61067e565b34801561027857600080fd5b5061024b60075481565b34801561028e57600080fd5b5061021561029d366004611057565b610789565b3480156102ae57600080fd5b50610215610950565b3480156102c357600080fd5b506102156102d2366004611057565b610991565b3480156102e357600080fd5b506009546101dd906001600160a01b031681565b34801561030357600080fd5b506101dd610312366004610ffd565b610a89565b34801561032357600080fd5b5061019a610ae0565b34801561033857600080fd5b5061024b610347366004611093565b610aed565b34801561035857600080fd5b50610215610b50565b34801561036d57600080fd5b506006546001600160a01b03166101dd565b34801561038b57600080fd5b5061019a610b62565b3480156103a057600080fd5b5061024b7f000000000000000000000000000000000000000000000000000000000000000081565b3480156103d457600080fd5b506102156103e33660046110ae565b610b6f565b3480156103f457600080fd5b506102156104033660046110ea565b610bdb565b34801561041457600080fd5b5061019a610423366004610ffd565b610cc3565b34801561043457600080fd5b5061024b7f000000000000000000000000000000000000000000000000000000000000000081565b34801561046857600080fd5b50610170610477366004611185565b600560209081526000928352604080842090915290825290205460ff1681565b3480156104a357600080fd5b506102156104b2366004611093565b610ced565b60006301ffc9a760e01b6001600160e01b0319831614806104e857506380ac58cd60e01b6001600160e01b03198316145b806105035750635b5e139f60e01b6001600160e01b03198316145b92915050565b60008054610516906111b8565b80601f0160208091040260200160405190810160405280929190818152602001828054610542906111b8565b801561058f5780601f106105645761010080835404028352916020019161058f565b820191906000526020600020905b81548152906001019060200180831161057257829003601f168201915b505050505081565b6000818152600260205260409020546001600160a01b0316338114806105e057506001600160a01b038116600090815260056020908152604080832033845290915290205460ff165b6106225760405162461bcd60e51b815260206004820152600e60248201526d1393d517d055551213d49256915160921b60448201526064015b60405180910390fd5b60008281526004602052604080822080546001600160a01b0319166001600160a01b0387811691821790925591518593918516917f8c5be1e5ebec7d5bd14f71427d1e84f3dd0314c0f7b2291e5b200ac8c7c3b92591a4505050565b7f00000000000000000000000000000000000000000000000000000000000000008111156106bf5760405163c6d2ab8d60e01b815260040160405180910390fd5b7f0000000000000000000000000000000000000000000000000000000000000000816007546106ee9190611208565b111561070d5760405163d05cb60960e01b815260040160405180910390fd5b610737817f0000000000000000000000000000000000000000000000000000000000000000611220565b341015610757576040516331fc877f60e01b815260040160405180910390fd5b60005b81811015610785576007546001016107723382610d66565b506007805460019081019091550161075a565b5050565b6000818152600260205260409020546001600160a01b038481169116146107df5760405162461bcd60e51b815260206004820152600a60248201526957524f4e475f46524f4d60b01b6044820152606401610619565b6001600160a01b0382166108295760405162461bcd60e51b81526020600482015260116024820152701253959053125117d49150d25412515395607a1b6044820152606401610619565b336001600160a01b038416148061086357506001600160a01b038316600090815260056020908152604080832033845290915290205460ff165b8061088457506000818152600460205260409020546001600160a01b031633145b6108c15760405162461bcd60e51b815260206004820152600e60248201526d1393d517d055551213d49256915160921b6044820152606401610619565b6001600160a01b0380841660008181526003602090815260408083208054600019019055938616808352848320805460010190558583526002825284832080546001600160a01b03199081168317909155600490925284832080549092169091559251849392917fddf252ad1be2c89b69c2b068fc378daa952ba7f163c4a11628f55a4df523b3ef91a4505050565b610958610e71565b476000036109795760405163150111e760e31b815260040160405180910390fd5b60095461098f906001600160a01b031647610ecb565b565b61099c838383610789565b6001600160a01b0382163b1580610a455750604051630a85bd0160e11b8082523360048301526001600160a01b03858116602484015260448301849052608060648401526000608484015290919084169063150b7a029060a4016020604051808303816000875af1158015610a15573d6000803e3d6000fd5b505050506040513d601f19601f82011682018060405250810190610a39919061123f565b6001600160e01b031916145b610a845760405162461bcd60e51b815260206004820152601060248201526f155394d0519157d49150d2541251539560821b6044820152606401610619565b505050565b6000818152600260205260409020546001600160a01b031680610adb5760405162461bcd60e51b815260206004820152600a6024820152691393d517d3525395115160b21b6044820152606401610619565b919050565b60088054610516906111b8565b60006001600160a01b038216610b345760405162461bcd60e51b815260206004820152600c60248201526b5a45524f5f4144445245535360a01b6044820152606401610619565b506001600160a01b031660009081526003602052604090205490565b610b58610e71565b61098f6000610f1c565b60018054610516906111b8565b3360008181526005602090815260408083206001600160a01b03871680855290835292819020805460ff191686151590811790915590519081529192917f17307eab39ab6107e8899845ad3d59bd9653f200f220920489ca2b5937696c31910160405180910390a35050565b610be6858585610789565b6001600160a01b0384163b1580610c7d5750604051630a85bd0160e11b808252906001600160a01b0386169063150b7a0290610c2e9033908a9089908990899060040161125c565b6020604051808303816000875af1158015610c4d573d6000803e3d6000fd5b505050506040513d601f19601f82011682018060405250810190610c71919061123f565b6001600160e01b031916145b610cbc5760405162461bcd60e51b815260206004820152601060248201526f155394d0519157d49150d2541251539560821b6044820152606401610619565b5050505050565b60606008604051602001610cd791906112b0565b6040516020818303038152906040529050919050565b610cf5610e71565b6001600160a01b038116610d5a5760405162461bcd60e51b815260206004820152602660248201527f4f776e61626c653a206e6577206f776e657220697320746865207a65726f206160448201526564647265737360d01b6064820152608401610619565b610d6381610f1c565b50565b6001600160a01b038216610db05760405162461bcd60e51b81526020600482015260116024820152701253959053125117d49150d25412515395607a1b6044820152606401610619565b6000818152600260205260409020546001600160a01b031615610e065760405162461bcd60e51b815260206004820152600e60248201526d1053149150511657d3525395115160921b6044820152606401610619565b6001600160a01b038216600081815260036020908152604080832080546001019055848352600290915280822080546001600160a01b0319168417905551839291907fddf252ad1be2c89b69c2b068fc378daa952ba7f163c4a11628f55a4df523b3ef908290a45050565b6006546001600160a01b0316331461098f5760405162461bcd60e51b815260206004820181905260248201527f4f776e61626c653a2063616c6c6572206973206e6f7420746865206f776e65726044820152606401610619565b600080600080600085875af1905080610a845760405162461bcd60e51b815260206004820152601360248201527211551217d514905394d1915497d19052531151606a1b6044820152606401610619565b600680546001600160a01b038381166001600160a01b0319831681179093556040519116919082907f8be0079c531659141344cd1fd0a4f28419497f9722a3daafe3b4186f6b6457e090600090a35050565b6001600160e01b031981168114610d6357600080fd5b600060208284031215610f9657600080fd5b8135610fa181610f6e565b9392505050565b600060208083528351808285015260005b81811015610fd557858101830151858201604001528201610fb9565b81811115610fe7576000604083870101525b50601f01601f1916929092016040019392505050565b60006020828403121561100f57600080fd5b5035919050565b80356001600160a01b0381168114610adb57600080fd5b6000806040838503121561104057600080fd5b61104983611016565b946020939093013593505050565b60008060006060848603121561106c57600080fd5b61107584611016565b925061108360208501611016565b9150604084013590509250925092565b6000602082840312156110a557600080fd5b610fa182611016565b600080604083850312156110c157600080fd5b6110ca83611016565b9150602083013580151581146110df57600080fd5b809150509250929050565b60008060008060006080868803121561110257600080fd5b61110b86611016565b945061111960208701611016565b935060408601359250606086013567ffffffffffffffff8082111561113d57600080fd5b818801915088601f83011261115157600080fd5b81358181111561116057600080fd5b89602082850101111561117257600080fd5b9699959850939650602001949392505050565b6000806040838503121561119857600080fd5b6111a183611016565b91506111af60208401611016565b90509250929050565b600181811c908216806111cc57607f821691505b6020821081036111ec57634e487b7160e01b600052602260045260246000fd5b50919050565b634e487b7160e01b600052601160045260246000fd5b6000821982111561121b5761121b6111f2565b500190565b600081600019048311821515161561123a5761123a6111f2565b500290565b60006020828403121561125157600080fd5b8151610fa181610f6e565b6001600160a01b038681168252851660208201526040810184905260806060820181905281018290526000828460a0840137600060a0848401015260a0601f19601f85011683010190509695505050505050565b600080835481600182811c9150808316806112cc57607f831692505b602080841082036112eb57634e487b7160e01b86526022600452602486fd5b8180156112ff576001811461131457611341565b60ff1986168952841515850289019650611341565b60008a81526020902060005b868110156113395781548b820152908501908301611320565b505084890196505b50949897505050505050505056fea2646970667358221220da6ba25ed482ebe3106cd78d77315395f46375ff507353d5fe6137dbfaa402ff64736f6c634300080f0033",
    "linkReferences": {}
  },
  "methodIdentifiers": {
    "approve(address,uint256)": "095ea7b3",
    "balanceOf(address)": "70a08231",
    "baseURI()": "6c0360eb",
    "getApproved(uint256)": "081812fc",
    "isApprovedForAll(address,address)": "e985e9c5",
    "maxAmountPerTrx()": "0b7ec171",
    "maxSupply()": "d5abeb01",
    "mintNft(uint256)": "0d730acc",
    "name()": "06fdde03",
    "owner()": "8da5cb5b",
    "ownerOf(uint256)": "6352211e",
    "price()": "a035b1fe",
    "renounceOwnership()": "715018a6",
    "safeTransferFrom(address,address,uint256)": "42842e0e",
    "safeTransferFrom(address,address,uint256,bytes)": "b88d4fde",
    "setApprovalForAll(address,bool)": "a22cb465",
    "supportsInterface(bytes4)": "01ffc9a7",
    "symbol()": "95d89b41",
    "tokenURI(uint256)": "c87b56dd",
    "totalSupply()": "18160ddd",
    "transferFrom(address,address,uint256)": "23b872dd",
    "transferOwnership(address)": "f2fde38b",
    "vaultAddress()": "430bf08a",
    "withdraw()": "3ccfd60b"
  },
  "id": 16
}